{
  "contractName": "VendingMachine",
  "abi": [
    {
      "inputs": [],
      "stateMutability": "nonpayable",
      "type": "constructor"
    },
    {
      "inputs": [
        {
          "internalType": "address",
          "name": "",
          "type": "address"
        }
      ],
      "name": "donutBalances",
      "outputs": [
        {
          "internalType": "uint256",
          "name": "",
          "type": "uint256"
        }
      ],
      "stateMutability": "view",
      "type": "function",
      "constant": true
    },
    {
      "inputs": [],
      "name": "owner",
      "outputs": [
        {
          "internalType": "address",
          "name": "",
          "type": "address"
        }
      ],
      "stateMutability": "view",
      "type": "function",
      "constant": true
    },
    {
      "inputs": [],
      "name": "getVendingMachineBalance",
      "outputs": [
        {
          "internalType": "uint256",
          "name": "",
          "type": "uint256"
        }
      ],
      "stateMutability": "view",
      "type": "function",
      "constant": true
    },
    {
      "inputs": [
        {
          "internalType": "uint256",
          "name": "amount",
          "type": "uint256"
        }
      ],
      "name": "restock",
      "outputs": [],
      "stateMutability": "nonpayable",
      "type": "function"
    },
    {
      "inputs": [
        {
          "internalType": "uint256",
          "name": "amount",
          "type": "uint256"
        }
      ],
      "name": "purchase",
      "outputs": [],
      "stateMutability": "payable",
      "type": "function",
      "payable": true
    },
    {
      "inputs": [],
      "name": "getNumberOfOwnedDonuts",
      "outputs": [
        {
          "internalType": "uint256",
          "name": "",
          "type": "uint256"
        }
      ],
      "stateMutability": "view",
      "type": "function",
      "constant": true
    }
  ],
  "bytecode": "0x608060405234801561001057600080fd5b50336000806101000a81548173ffffffffffffffffffffffffffffffffffffffff021916908373ffffffffffffffffffffffffffffffffffffffff1602179055506064600160003073ffffffffffffffffffffffffffffffffffffffff1673ffffffffffffffffffffffffffffffffffffffff168152602001908152602001600020819055506108ec806100a56000396000f3fe6080604052600436106100555760003560e01c80636087fa8e1461005a5780638da5cb5b146100855780639a020d8a146100b0578063c21a702a146100ed578063e7644d3414610116578063efef39a114610141575b600080fd5b34801561006657600080fd5b5061006f61015d565b60405161007c91906104ae565b60405180910390f35b34801561009157600080fd5b5061009a6101a4565b6040516100a7919061050a565b60405180910390f35b3480156100bc57600080fd5b506100d760048036038101906100d29190610556565b6101c8565b6040516100e491906104ae565b60405180910390f35b3480156100f957600080fd5b50610114600480360381019061010f91906105af565b6101e0565b005b34801561012257600080fd5b5061012b6102c7565b60405161013891906104ae565b60405180910390f35b61015b600480360381019061015691906105af565b61030e565b005b6000600160003373ffffffffffffffffffffffffffffffffffffffff1673ffffffffffffffffffffffffffffffffffffffff16815260200190815260200160002054905090565b60008054906101000a900473ffffffffffffffffffffffffffffffffffffffff1681565b60016020528060005260406000206000915090505481565b60008054906101000a900473ffffffffffffffffffffffffffffffffffffffff1673ffffffffffffffffffffffffffffffffffffffff163373ffffffffffffffffffffffffffffffffffffffff161461026e576040517f08c379a00000000000000000000000000000000000000000000000000000000081526004016102659061065f565b60405180910390fd5b80600160003073ffffffffffffffffffffffffffffffffffffffff1673ffffffffffffffffffffffffffffffffffffffff16815260200190815260200160002060008282546102bd91906106ae565b9250508190555050565b6000600160003073ffffffffffffffffffffffffffffffffffffffff1673ffffffffffffffffffffffffffffffffffffffff16815260200190815260200160002054905090565b67016345785d8a0000816103229190610704565b341015610364576040517f08c379a000000000000000000000000000000000000000000000000000000000815260040161035b906107d0565b60405180910390fd5b80600160003073ffffffffffffffffffffffffffffffffffffffff1673ffffffffffffffffffffffffffffffffffffffff1681526020019081526020016000205410156103e6576040517f08c379a00000000000000000000000000000000000000000000000000000000081526004016103dd90610862565b60405180910390fd5b80600160003073ffffffffffffffffffffffffffffffffffffffff1673ffffffffffffffffffffffffffffffffffffffff16815260200190815260200160002060008282546104359190610882565b9250508190555080600160003373ffffffffffffffffffffffffffffffffffffffff1673ffffffffffffffffffffffffffffffffffffffff168152602001908152602001600020600082825461048b91906106ae565b9250508190555050565b6000819050919050565b6104a881610495565b82525050565b60006020820190506104c3600083018461049f565b92915050565b600073ffffffffffffffffffffffffffffffffffffffff82169050919050565b60006104f4826104c9565b9050919050565b610504816104e9565b82525050565b600060208201905061051f60008301846104fb565b92915050565b600080fd5b610533816104e9565b811461053e57600080fd5b50565b6000813590506105508161052a565b92915050565b60006020828403121561056c5761056b610525565b5b600061057a84828501610541565b91505092915050565b61058c81610495565b811461059757600080fd5b50565b6000813590506105a981610583565b92915050565b6000602082840312156105c5576105c4610525565b5b60006105d38482850161059a565b91505092915050565b600082825260208201905092915050565b7f4f6e6c7920746865206f776e65722063616e20726573746f636b20746869732060008201527f6d616368696e652e000000000000000000000000000000000000000000000000602082015250565b60006106496028836105dc565b9150610654826105ed565b604082019050919050565b600060208201905081810360008301526106788161063c565b9050919050565b7f4e487b7100000000000000000000000000000000000000000000000000000000600052601160045260246000fd5b60006106b982610495565b91506106c483610495565b9250827fffffffffffffffffffffffffffffffffffffffffffffffffffffffffffffffff038211156106f9576106f861067f565b5b828201905092915050565b600061070f82610495565b915061071a83610495565b9250817fffffffffffffffffffffffffffffffffffffffffffffffffffffffffffffffff04831182151516156107535761075261067f565b5b828202905092915050565b7f596f75206d75737420706179206174206c6561737420302e312065746865722060008201527f70657220646f6e75740000000000000000000000000000000000000000000000602082015250565b60006107ba6029836105dc565b91506107c58261075e565b604082019050919050565b600060208201905081810360008301526107e9816107ad565b9050919050565b7f4e6f7420656e6f75676820646f6e75747320696e2073746f636b20746f20667560008201527f6c66696c6c207075726368617365207265717565737400000000000000000000602082015250565b600061084c6036836105dc565b9150610857826107f0565b604082019050919050565b6000602082019050818103600083015261087b8161083f565b9050919050565b600061088d82610495565b915061089883610495565b9250828210156108ab576108aa61067f565b5b82820390509291505056fea2646970667358221220aa1ae160d3d6e5946d09487ed17d3074c16d87221a7dc03cc544011d44d3770b64736f6c634300080b0033",
  "immutableReferences": {},
  "source": "// SPDX-License-Identifier: MIT\r\npragma solidity ^0.8.11;\r\n\r\ncontract VendingMachine {\r\n    address public owner;\r\n    mapping (address => uint) public donutBalances;\r\n\r\n    constructor() {\r\n        owner = msg.sender;\r\n        donutBalances[address(this)] = 100;\r\n    }\r\n\r\n    function getVendingMachineBalance() public view returns (uint) {\r\n        return donutBalances[address(this)];\r\n    }\r\n\r\n    function restock(uint amount) public {\r\n        require(msg.sender == owner, \"Only the owner can restock this machine.\");\r\n        donutBalances[address(this)] += amount;\r\n    }\r\n\r\n    function purchase(uint amount) public payable {\r\n        require(msg.value >= amount * 0.1 ether, \"You must pay at least 0.1 ether per donut\");\r\n        require(donutBalances[address(this)] >= amount, \"Not enough donuts in stock to fulfill purchase request\");\r\n        donutBalances[address(this)] -= amount;\r\n        donutBalances[msg.sender] += amount;\r\n    }\r\n\r\n    function getNumberOfOwnedDonuts() public view returns (uint) {\r\n        return donutBalances[msg.sender];\r\n    }\r\n}",
  "sourcePath": "C:\\vendingmachine\\contracts\\VendingMachine.sol",
  "compiler": {
    "name": "solc",
    "version": "0.8.11+commit.d7f03943.Emscripten.clang"
  },
  "schemaVersion": "3.4.11",
  "updatedAt": "2022-12-14T18:24:27.379Z",
  "networkType": "ethereum",
  "devdoc": {
    "kind": "dev",
    "methods": {},
    "version": 1
  },
  "userdoc": {
    "kind": "user",
    "methods": {},
    "version": 1
  }
}